S00A00004144562E7333370F
S2140000000000012045340000413400004134000067
S214000010911A0000413400004134000041340000D1
S21400002041340000413400004134000041340000F7
S21400003041340000413400004134000041340000E7
S21400004041340000696E0000413400004134000075
S21400005091660000AD6E0000756E0000796E0000BF
S2140000606D6E000041340000413400004134000051
S21400007041340000413400004134000041340000A7
S2140000804134000041340000413400004134000097
S2140000904134000041340000413400004134000087
S2140000A04134000041340000413400004134000077
S2140000B0B16E0000716E0000E18500004134000062
S2140000C0ED6E000041340000FD5500004134000094
S2140000D04134000041340000413400004134000047
S2140000E04134000041340000413400004134000037
S2140000F041340000413400004134000010B5054C86
S214000100237833B9044B13B10448AFF300800123BE
S214000110237010BDC80000200000000060BE000074
S21400012008B5034B1BB103490348AFF3008008BD75
S21400013000000000CC00002060BE0000A3F5803A5E
S214000140704700BF174B002B08BF134B9D46FFF7A9
S214000150F5FF00218B460F461348144A121A09F081
S21400016021FA0E4B002B00D098470D4B002B00D0E9
S21400017098470020002104000D000D48002802D0FA
S2140001800C48AFF3008009F0DBF92000290002F0EC
S21400019053FA09F0C1F900BF000008000000000093
S2140001A00000000000000120C80000200C180020FD
S2140001B00000000000000000BFF34F8F0549064B0B
S2140001C0CA6802F4E0621343CB60BFF34F8F00BFF0
S2140001D0FDE700BF00ED00E00400FA0510B502469A
S2140001E000B3114B1968888890421BD398889042B8
S2140001F081BF0968996001209880998898680024D2
S21400020028B904B198604FF6FF729A8009E08A42D6
S21400021004D00131006889B20124F1E70CB19A805C
S214000220986010BD0020FCE7AC060020114A916AD9
S21400023001F1704303F5F813B3F5006F0CD2D2F852
S2140002402838A3F17E62A2F58432B2F5605F03D24D
S2140002500968094A914203D00023037083607047FF
S2140002601968064A9142F7D1012202709A684260E4
S2140002709B69F3E70000E10FAD1007B007B0CD5E55
S2140002801FB50C4640B901A8FFF7D0FF044B029AF1
S2140002901A6023600423A380002004B010BD00BFB2
S2140002A060010020064BD3F82828A2F17E63A3F550
S2140002B08433B3F5605F01D2536A18470020704755
S2140002C00000E10F0D4B10B4D3F82848A4F17E636C
S2140002D0A3F58433B3F5605F0BD2246BA4F17E6381
S2140002E0A3F58433B3F5605F03D2A36B5DF8044BCC
S2140002F0184740F201105DF8044B70470000E10F0C
S2140003000B4BD3F82828A2F17E63A3F58433B3F50C
S214000310605F09D2126BA2F17E63A3F58433B3F556
S214000320605F01D2D36B184740F20110704700BFE0
S2140003300000E10F024BD3F8F80080B2800270474D
S2140003400081E00F7FB50F4A03466D4602F11006A6
S214000350106851682C4603C40832B2422546F7D1CD
S2140003605A1E0DF10F010F3311F8010912F8014F53
S214000370844204D19A42F7D1012004B070BD002017
S214000380FBE700BFB497000070B5154E306810BB91
S214000390144B154CE41A154B1C4424F4FF6424F04B
S2140003A00704FFF7C7FF844214D2656BA5B1FFF7B9
S2140003B0C1FF854210D2FFF7BDFF05F1500383420F
S2140003C00AD82846FFF7BEFF30B1EB6933F00803C2
S2140003D002D03460306870BD04F50064E1E700BF09
S2140003E04801002010000020C8000020B7C600000A
S2140003F010B50C4648B9FFF7C7FF054B10B1426B66
S214000400126A1A6023600423A380002010BD00BF78
S21400041050010020094B40F201121A604FF0FF32E3
S2140004209A6001225A600144814202D1D869C043D1
S214000430704710F8012B9A61F6E700BF00C0014034
S214000440034B044A9979117500221A60704700BF61
S214000450500D00204406002030B500228BB0134615
S214000460D91003F00704415C2141CC0741BF02F1DB
S21400047028016944013201F8283C0133252BEFD1CD
S2140004800D4C0023D91003F00705415C2941C9072C
S2140004905FBFB3FBF2F102FB11312831694448BF5C
S2140004A0D9B203F1010358BF11F8281C04F8011B48
S2140004B0252BE7D10BB030BD6E06002010B5034CDF
S2140004C0A01DFFF7C9FF0023236010BD500D0020BC
S2140004D0084A10B5136840F2E24404FB0131604359
S2140004E0536800F5807001EB5001184411605060AD
S2140004F010BD00BF44060020D0B50C4CE38C0A208B
S214000500584308F06DFD0646A08C0F4608F068FDBF
S214000510074B002208F0CEFD02460B463046394611
S21400052008F0F2FE08F0D8FF2083D0BD4406002075
S2140005300000F43F10B5094CB4F80710A079FFF797
S214000540C7FFA368064AB4F80D10D184C3F30F237F
S2140005509384FFF7D1FF0023236010BD500D0020C9
S21400056044060020837DDB0701D5808A7047D0E9EA
S21400057001239B1A44BF828A9B1898B270470000DA
S214000580084BD3F8F020D3F8F4300270110A120C9E
S21400059082701A0AC2701A0C1B0E417002714371E7
S2140005A0704700BF0081E00F034BD86B80F040001F
S2140005B0C0F38010704700BF00300E4008B5FFF74C
S2140005C0F3FF20B1024AD2F8C830002BFBD108BD99
S2140005D00000C64308B5FFF7F1FF024B5868C0F3AA
S2140005E0014008BD00300E400C4B984210D90C4B11
S2140005F0984210D9022201230A490B640A49D1F80D
S214000600003123F0807343EA0263C1F8003170477B
S21400061000221346F0E70122FBE700BF0048E8018E
S2140006200090D0030000C84300400E400F4B5B68AC
S2140006300F4B30B500221C46C9B21D798D4202D13F
S2140006401D6885420DD20132052A03F10803F4D154
S214000650032206494B6823F0407343EA02634B606B
S21400066030BD04EBC2025279F3E700BF00000E4033
S214000670E498000070B5064C41F67136256C266489
S214000680FFF7D4FFADB2B5421CBF0023236470BD94
S21400069000000E4042EA0323B3F5007F39D016D897
S2140006A0B3F5807F31D007D85BB3012B1ED0002274
S2140006B0134603600A60704740F201129342F6D177
S2140006C0184BD3F824321A0EC3F30743F1E7B3F5F9
S2140006D0407F22D040F2013293420ED040F20122F7
S2140006E09342E4D10F4BD3F8283202E00D4BD3F8F7
S2140006F02432C3F30722DBB2DBE70A4BD3F82832F7
S214000700E1E7084BD3F81C32F3E7064BD3F81C326C
S214000710D9E7044BD3F82032EBE7024BD3F820326C
S214000720D1E700BF0081E00F2F4B1A6FD96C11F094
S214000730010F02F0060242D0002A40D013284FD9FB
S214000740143813288CBF102308232749013BCA6C92
S214000750180322F47F4240EA03231343CB64234B5F
S214000760CA6C1B88C2F303222833013202EB8200D4
S21400077003EB5303B3FBF0F3C86C013B072B28BF16
S214000780072320F0EE6040EA036343F48013CB6453
S214000790174BB3F90030002B10DB2833500800EB62
S2140007A0420203EB5303B3FBF2F30A6D072B28BF99
S2140007B0072322F0700242EA03130B657047D96CD8
S2140007C001F00101114304D1092809D90A38092882
S2140007D0B8E7DB6C13F00103B7D01AB92728B1E7E6
S2140007E00423B2E70023B0E700300E40C206002024
S2140007F0C406002070B51D4DD5F82828A2F17E63EA
S214000800A3F58433B3F5605FE0B004D34FF401740E
S214000810204660B070BD136B002BF7D05B6A4FF4B8
S214000820C07269460020984704460028F0D140F27E
S2140008300126D5F82828A2F17E63A3F58433B3F504
S214000840605FE3D2126BA2F17E63A3F58433B3F547
S214000850605FDBD2936A002168469847B042E8D0D2
S21400086040F20323984218BF0446D1E70000E10F88
S214000870104A0B46D2F82818A1F17E62A2F58432FF
S214000880B2F5605F10B40FD2096BA1F17E62A2F5DB
S2140008908432B2F5605F07D20C69074A0146A44667
S2140008A000205DF8044B60474FF481705DF8044B00
S2140008B0704700BF0000E10FF406002037B504467D
S2140008C0684680E8060003C8251D85E805002373F2
S2140008D0069B0B4A2361BDF81C30A38200232360CD
S2140008E0136853B119461B68002BFBD10C60908827
S2140008F0013080B2908003B030BD1460F7E700BFCF
S214000900A406002037B50D461446FFF767FC70B105
S214000910036973B1818A4FF6FE72914209D1009540
S214000920ADF8044069460120984703B030BD012069
S214000930FBE70E20F9E7036937B514460D46828AB1
S21400094063B14FF6FE718A4208D100200090ADF8E0
S21400095004006946984728B103B030BD2B600020DC
S2140009602280F9E7009B2B60BDF804302380F3E774
S21400097038B50D461446FFF731FC40B122462946ED
S214000980FFF7D9FF10B92B6803B9208038BD0120C6
S214000990FCE7000007B503790193054A0368009356
S2140009A006CA02230830FFF789FF03B05DF804FB90
S2140009B040990000034B5A6D12B95865A3F85810B9
S2140009C0704700BF440600200A4BD3F82828A2F13F
S2140009D07E63A3F58433B3F5605F10B508D2064C8A
S2140009E02378012B04D1136A984708B90223237091
S2140009F010BD00BF0000E10F640100200A4BD3F8D1
S214000A002828A2F17E63A3F58433B3F5605F10B5A2
S214000A1009D2064C237813F0FD0F04D1D36998470A
S214000A2008B90123237010BD0000E10F6401002007
S214000A3008B50F4B0F4C1B784FF000556BB1FFF706
S214000A40DDFF0D4B2B600123A360236823F4E063D6
S214000A5043F480632360FFF7AFFB2B600123A360A2
S214000A60236823F4E06343F480632360FFF7A4FB6A
S214000A705F01002000500E4002020FF0054A08B544
S214000A80937E43F040039376034B00221A70FFF7E1
S214000A90CFFF00BF44060020A00600202DE9F0414D
S214000AA016460546FFF75EFDB04228BF304686B2C2
S214000AB00F46B046B8F1000F09D12EB1AB7DDA076C
S214000AC044BF23F00103AB753046BDE8F0812B68C8
S214000AD0AC8A69681C44641AA4B2444528BF4446DC
S214000AE02246384608F050FD6A682B68A98A2244D8
S214000AF0194427448A4238BF1346A8EB04041FFA59
S214000B0084F86B60D6E7F8B51F46038A0446164697
S214000B10EBB9C57DDDB10123013D0B700222C57521
S214000B2000F11001FFF7BAFFE37D9BB1228ABA42BB
S214000B3028BF3A4631462046FFF7B0FF238A1B1AE5
S214000B402382E37D13B9638A1B1A6382F8BD0023F0
S214000B500B70EBE7638A2382E8E72DE9F041044651
S214000B600F461146FFF7FEFCA38A181A86B28E427D
S214000B7028BF0E46B046B8F1000F0BD13EB1D4E9FF
S214000B8001329A4202BFA37D43F00103A3753046AB
S214000B90BDE8F0812368A58AA0681D442D1AADB271
S214000BA0454528BF45462A46394608F0EDFCA2686A
S214000BB02368A18A2A4419442F448A4238BF134620
S214000BC0A8EB05051FFA85F8A360D4E7F8B5044638
S214000BD016461F4611B3FFF7C5FCA58A281A80B231
S214000BE0012829D9E37D63B1E068658A05702D0A7E
S214000BF007D02268A38A01301344984228BF1046C3
S214000C00F4E700236382A368E360022204F1120182
S214000C102046FFF7A2FFE37D0133E3753A463146EF
S214000C202046FFF79AFF638A03446382E37D13B985
S214000C30238A03442382F8BD0020FCE713B503791A
S214000C40124A03330446019300F14403009306CA94
S214000C5002231430FFF732FE238A0193E3680093E1
S214000C6094E80600237A04F12C00FFF727FE237A87
S214000C7022792168A4F8450004F1470084F844303E
S214000C8002B0BDE8104008F07FBC00BF38990000F5
S214000C9070B50C4C0C4B06460D46D4E9010183E8B2
S214000CA003001846FFF776FE084BD4E9040102223B
S214000CB01A7283E80300DE601D821846BDE87040A5
S214000CC0FFF7BCBF58980000D01100208C0400200D
S214000CD02DE9D34FDDF82890BDF82CA004460F462A
S214000CE090461E46FFF77AFA8346BBF1000F01D006
S214000CF0BC4205D94FF6FF74204602B0BDE8D08F3F
S214000D009BF808309E421CD1DBF804003246414670
S214000D1008F058FCA8B9B9F1000FEDD00DF10202A9
S214000D2001A95846FFF707FE58B9019949B1BDF821
S214000D300230534505D15246484608F043FC002889
S214000D40DAD00134DBF800B0A4B2CEE738B50C46F2
S214000D5011462568AD1A2A46014408F043FC256072
S214000D6038BD000001282DE9F34740F045818B8807
S214000D70012B40F043810B681C7814BBA14BA24D9D
S214000D801C60A24B1C70A24B1C60A24B1C60A24BAA
S214000D901C60A24B1C60A24B1C70A24B1C60A24B9A
S214000DA01C60A24B1C702B78022B01D1FFF70CFEA7
S214000DB001232B709E4B00221A70204602B0BDE81D
S214000DC0F087032C40F00681904B8F4E1C78002C49
S214000DD056D13378002B00F0F180914B1B78082B0E
S214000DE002D0402B40F08C80DFF81882D8F8000044
S214000DF090B9904DD5F82838A3F17E63A3F58433D7
S214000E00B3F5605F5CD34FF4017041F2080398427B
S214000E1000F0D680802433E010F003071CBFC7F133
S214000E200407FFB200EB070ABAF5806F00F2CC8029
S214000E30814BDFF8F0913A46FF21184408F0B2FBE8
S214000E407E4AD9F800301268C8F800A00AEB030101
S214000E50914200F2BD806E4A15681D445544DFF885
S214000E60BCA125F4FF65DAF8000025F007058542E9
S214000E7010D9291A00F50060FFF742FA40B1852420
S214000E803378022B01D1FFF79FFD0023337094E7E0
S214000E90CAF80050D8F80010D9F80000FFF7E8FCB0
S214000EA0D9F80030D8F80020564913440546DB1B15
S214000EB06148C9F80030FFF749FF002D99D0DEE7FA
S214000EC0FFF798FC0028A0D1D5F828280190A2F1B9
S214000ED07E63A3F58433B3F5605FD0D2126BA2F1C4
S214000EE07E63A3F58433B3F5605FC8D293690121AE
S214000EF001A898470028C2D14C4B01221A70BFE7C0
S214000F00002B5FD04A4B1B78002B83D0464F3B68A4
S214000F1043B9414B4A4918681022FFF7D3F9002815
S214000F20AED0ACE713F003021CBFC2F10402D2B28B
S214000F309D18B5F5806F47D84248DFF8D880FF2166
S214000F40184408F02FFB404A404B41493D609B1A2D
S214000F50404A1344D8F800200B40934236D8FFF797
S214000F60E9F91544A0F58050854231D83D68DFF890
S214000F70AC902A44D9F8000002EA0105854209D956
S214000F80291A00F50060FFF7BBF900287FF477AF59
S214000F90C9F800503A682B49D8F80000FFF792F9D4
S214000FA0D8F800303A682049054613442548C8F862
S214000FB00030FFF7CBFE002DABD060E781245FE763
S214000FC086245DE784245BE7822459E7872457E775
S214000FD0832455E7042C13D11F48132302214370A2
S214000FE00170FFF7E7FC1D4A1D4B128905329A80F7
S214000FF01C4A1A6042789A710024DEE60D24DCE66C
S2140010000624DAE6F40A0020FA0A0020F90A00208C
S21400101030120020FC0A0020800D002088110020DD
S2140010204C010020000B0020841100205F010020EE
S214001030F80A00200000E10FF40600203412002019
S214001040700D0020840D002010000020C800002035
S21400105000F8FFFFB7C60000640D0020440600201D
S214001060500D00207D0A00002DE9F84F494F4A4BED
S214001070D7F80090DFF84481A0EB0906824647487F
S214001080C8F800601B1A4648034423F4FF6323F0A5
S21400109007039E4278D3FFF74DF90AEB0204A0F54A
S2140010A08050844273D8386800EB020BBBF5806F23
S2140010B003D93C4B82221A7064E03B4D284408F06A
S2140010C063FA3A4BC7F800B01A6822B9BBF1330F7F
S2140010D058D96A6B1A601868864206EB0B041FD84C
S2140010E084421DD900F110039C424BD38144A9EBE6
S2140010F00A0A55442E4A2B4605F1100153F8040BF4
S21400110042F8040B8B42F9D12948FFF71BF910B9B6
S214001110244B8422CFE71022FF21284608F042FA0B
S214001120244D254B28680BF0030BA4EB0B041C4046
S21400113058B906EA0300C0F500612144FFF7E0F85D
S2140011402C6040B1174B8522B5E7A04203D2211A86
S21400115000F50060F2E73A681349D8F80000A2EB01
S2140011600B02FFF7AFF83A68D8F800300949A2EB4F
S2140011700B02044613440C48C8F80030FFF7E6FD9F
S214001180002CDFD1BDE8F88F064B872293E7054B8E
S214001190832290E784110020C80000201000002061
S2140011A0B7C60000F90A0020840D0020800D00203C
S2140011B0700D00208811002000F8FFFFFC0A0020B8
S2140011C037B50023114C0093437A6060D0E90021C4
S2140011D0206802F0F4FD238CDB050CD563680C4D0B
S2140011E01B7A2A789A4206D0012B06D0022B08D00A
S2140011F063681B7A2B7003B030BD206802F0B4FD24
S214001200F6E7206802F0B6FDF2E700BF8C1100207A
S214001210A106002013B50D4B0D4C1B8BADF804300A
S2140012200128ADF8003004BF02238DF8043001A970
S21400123008BF0423206808BF8DF8003002F0C8FC01
S2140012402068694602F0DAFC02B010BD589800002B
S2140012508C110020034B00221A611868012203211A
S21400126002F0CCB98C11002010B5164CA37E5B069C
S21400127026D4FFF7EFFFA18C226840F2E24303FB7F
S21400128001222260A37A94F84F2013442522B3FB50
S214001290F2F002FB10332289A372013263682281C6
S2140012A00A2202FB01336360238B5A1E22833BB95A
S2140012B0A27E42F04002A276034A1370FFF7B8FB04
S2140012C010BD00BF44060020A00600207FB5022304
S2140012D08DF80A30064B5A8B596918680332ADF8F8
S2140012E0082001AA02F0FEFC019807B05DF804FB96
S2140012F08C11002010B51E4C1946236986B023B306
S214001300A2F10800084322D101AA0321206802F0B6
S214001310E5FC636860615B7A23769DF80430DA1F2B
S21400132053425341627E63F30002039BE361BDF8C0
S21400133006306276638304F1180102202369984719
S21400134020680122002102F0CFFC06B010BD02F199
S2140013507F40014305D10021012006B0BDE81040C2
S214001360184712F4A0411ABF00210320FF20F4E71B
S2140013708C110020F0B5194C194D87B0637A0133F3
S214001380DBB2272B88BF252320466372FFF718FFA2
S214001390627D14492868E768667C4FF40073023261
S2140013A002F07EFC6B68104A5B7A06F00106D15CA0
S2140013B003913046FFF72EFF012300220593039981
S2140013C02868009204AB049702F01CF910B1FFF7EE
S2140013D041FFD3E7054B2B6107B0F0BDE4000020CA
S2140013E08C110020F80000200D990000A1140000C8
S2140013F0F0B5254CA37E5A0687B040D4234A2189EF
S21400140023F0070343F00103A37613681BB1928809
S2140014108A4200D19847A37A1D48234493F82A307D
S2140014206375FFF7CDFED4E900561A4C1A4A636876
S2140014305B7A7708D15C0191A5EB56060120FFF791
S214001440E9FE643502964FF4807300260199ADF8E4
S21400145014303D4402AA2068049533468DF80C608B
S2140014608DF8166002F0F4F8012205463146206831
S21400147002F03AFC2DB1FFF7F7FEFFF7B9FF07B011
S214001480F0BD064B2361FAE744060020500D00200D
S214001490500600208C1100200D990000091600004F
S2140014A002282DE9F0411DD002D8012807D0FEE71A
S2140014B0032800F09E80FF2800F09B80F7E74E4C44
S2140014C0637C990707D5FFF7C5FEFFF753FF637CDC
S2140014D06FF341036374637CDA0768D4BDE8F041B8
S2140014E0FFF748BF4B78DB0740F183804C682278D3
S2140014F002F00F08B8F1030F5BD0B8F1050F78D1F2
S2140015003E498B7B03F00103B3EBD21F4FD106227B
S214001510083104F1080008F055F80646002846D1C0
S214001520FFF798FEFFF7D2FE354D314607465C22A0
S214001530284608F037F8AB7EA5F8188043F020035D
S214001540AB76627E237E43EA0223AB84627F237FF0
S21400155043EA0223EB8494F82330C3F3040385F8AC
S2140015604F3094F82330C3F3421385F8503004F11B
S2140015701E001B232B85FEF76FFFD4F80E30E27C8F
S214001580EB60A37C2F6043EA0223227D607D43EA62
S21400159002432B61012695F84F30AB722E75E18A17
S2140015A03144FEF795FFFFF723FF164B1E70BDE88C
S2140015B0F081124DAB7B03F00103B3EBD21FF6D1E3
S2140015C0062205F1080104F1080007F0FBFF0028D9
S2140015D0EDD1094C286894F83D204FF40073023290
S2140015E004F13C0102F05CFB637C43F0020363748D
S2140015F0DDE7FFF72FFE71E7E40000208C110020E6
S21400160044060020A006002002282DE9F347804665
S2140016100C460BD003D8012800F0AE81FEE7032865
S21400162000F0B081FF2800F0AD81F7E74B78AB4DB6
S21400163013F0010300F0BC804A68AF7E117892F880
S2140016400090C1F3001161F38207AF76C9F3C001C1
S214001650C7F30017B94240F0A88009F00301022939
S21400166000F0A180032918D0012940F09E804FF099
S214001670000A567896B19A48818AFEF773FF0B1ACD
S2140016809BB2BAF1000F04D0022B86BF023B9BB27E
S21400169000239E428CBF002301231E46A97EC9F369
S2140016A08009C1F3C002914508D082F00102D20041
S2140016B042F0200221F028010A43AA762BB1AB7E25
S2140016C087F0010767F30413AB76AB7E854F13F004
S2140016D0200F11D0696D6FF34513AB76002969D0E2
S2140016E03B7895F858207A7043F003033B70B81C9B
S2140016F007F04AFF00236B657B487A49FEF732FF06
S214001700AB7E003818BF012060F34103C3F3C0026C
S214001710AB76C3F300139B0043EAC20343EA001010
S2140017203B787A7823F01C03184338706F4F0232E8
S2140017304FF400733868D2B202F0B2FAAB7E646837
S214001740D90709D56FF30003AB7600236B60FFF76C
S214001750BDFD2860FEF7D0FE002E00F0A1802378A5
S21400176003F00303022B05D0032B3DD0012B40F0E2
S214001770978000265A486578818AFEF7F3FE081A95
S21400178080B226B1022886BF023880B20020854289
S214001790ABB200F285805248A21C314602B0BDE8CA
S2140017A0F047FFF713BA9A4663E70026334675E715
S2140017B01E468AE795F828304B48BA1C0DF10701FB
S2140017C0FFF7A1F910F0FF000BD09DF80730002BB3
S2140017D008BF4FF001083B78787068F301033B7050
S2140017E08AE74FF00108F6E7A3780C2B0AD80C2BF3
S2140017F00AD8DFE803F03F2B5809090909096009F0
S21400180009091800142B7FD0394A12782AB1162BF2
S21400181000F09680182B00F0A2803648072202704F
S214001820437002210DE033480C234FF0FF32037063
S214001830012343708270037102220023C270437139
S214001840062102B0BDE8F047FFF7B4B8617A237A04
S214001850294A43EA012393801346284943F8061B86
S214001860D4F80310C2F80610B4F807209A80627AFB
S2140018709A7115E0627B237B1F4943EA02238B8023
S2140018800B461F4A43F8062BD4F80320C1F806205F
S214001890D4F807205A60B4F80B201A81627B9A723B
S2140018A002B0BDE8F0872A89134B05329A80154AA4
S2140018B01A60E278DCE7D4F803303A8C0D4813401F
S2140018C003F0FF0322F0FF0213430246092102F849
S2140018D0011BC0F8013000235360B2E74406002025
S2140018E01C0B00203C120020340C00208C11002021
S2140018F04C0D0020640D0020500D0020BD0400009B
S214001900350500007D0A0000B4F80530B4F8032061
S2140019102048DB08934228BF13462B851523002159
S2140019206FF004046FF02702037007238170817143
S2140019304470C27003714471C2710372092180E75A
S2140019402279E3781348134003F00303022B18BFF1
S21400195001231722027043708370032171E76279B6
S214001960A1790D4B42EA01229A800C4A1A60D4F8FB
S2140019700320C3F8062093E7094B9B7E9A078FD473
S2140019805B078DD4FFF770FC02B0BDE8F047FFF7A9
S2140019902FBD00BF640D0020500D00204104000044
S2140019A044060020EFF3108072B670470048704778
S2140019B000F049020E49D1F8942002F00702042AEA
S2140019C00BD8022A0FD811D10A4BD1F80001C0F368
S2140019D004200130B3FBF0F07047074B0748052A98
S2140019E008BF0346F1E74FF40043EEE7024BECE78F
S2140019F000400E4000F04902C0EA210160F5900068
S214001A0008B5FFF7D7FF044BD3F80831C3F3082314
S214001A100133B0FBF3F008BD00400E4013B502469C
S214001A200C46FEF7C1FDF0B122B9104BD3F80031D9
S214001A30FFF7C0FFFEF7B8FDA8B1FEF7CBFD90B1EB
S214001A400A4BD3F80031FFF7B5FF094B40221A6165
S214001A501CB10190FEF7B2FD0198002102B0BDE86E
S214001A601040FEF707BE02B010BD00BF00400E409B
S214001A7000300E40044B054A9A60D3F8882042F4A2
S214001A807002C3F88820704700ED00E000000000F8
S214001A9008B5FEF791FB704738B5C0F30323013B4A
S214001AA004460D46092B1CD8DFE803F033231C1B25
S214001AB00526291B2C30184B0022C4F3043442B1EF
S214001AC01649D1F84401C00703D4D1F840010242B8
S214001AD0FBD103F1424303F5801304EBC3039B00E1
S214001AE01D6038BDFFF78CFFFEF77EFD0C4B002215
S214001AF0E3E70C4B0022E0E70B4B0122DDE70B4B44
S214001B001022DAE70A4B4FF48032D6E7094B002260
S214001B10D3E7024B0022D0E7B0400E4000400E4014
S214001B20B8400E40C0400E40E0400E40E8400E4038
S214001B30F0400E4050410E402DE9F84FDFF808A166
S214001B403E4D9AF80070814688461646002F38D1DA
S214001B50FEF7F0FB3A4CA0F580502060FEF7EAFB5B
S214001B60A0F50060606001213648FFF795FF206809
S214001B7008210430FEF74EFC23681B68984208BF15
S214001B802368606808BFD3F804B04FF0080100F17E
S214001B9004000CBF0127BB46FEF73CFC63681B68CD
S214001BA0984205D163685B685B4505D8002304E06E
S214001BB0002FFBD1FF2300E001232B7001238AF8BE
S214001BC0003095F900305A1C28D01D4ADFF87CA05A
S214001BD052F823700C373D464FF6FF7BC5F30A03D9
S214001BE00833B3F5006F19D2AB885B4516D0A979D8
S214001BF0281D0431FEF70EFC2B68EC889842E4B2F0
S214001C0002D1AB884B450CD0033404F4FE74083480
S214001C10254487EA050313EA0A0FDFD00020307058
S214001C200AE03378A342F9D3224605F1080140467C
S214001C3007F0AAFC34700120BDE8F88F10000020E1
S214001C40B806002000650A003812002000F8FFFFE2
S214001C502DE9F04F012891B004D00024204611B0A1
S214001C60BDE8F08F8A88002A00F01B82AA4F97F8FA
S214001C7000A0BAF1000F00F01682A84D2C78002CB8
S214001C80ECD1DFF8CCB29BF80040002CE5D1A44E96
S214001C90306802EB0009B9F5806F02D982242C70F7
S214001CA0DCE7DFF898820968404407F06DFCBAF17B
S214001CB0020FC6F8009039D0B9F1030FCDD9994874
S214001CC0FEF7B4FA0378D8F80020012B46D1436813
S214001CD0190E012903D1C3F307430A2B46D9924BA9
S214001CE09A4240F0E7808368DA033DD502233B70D2
S214001CF0FEF784FE8D4BD3F82828A2F17E63A3F569
S214001D008433B3F5605F0BD2126BA2F17E63A3F54A
S214001D108433B3F5605F03D2936809A9002098471F
S214001D20834B099A1A60834B0A9A1A60DFF824924A
S214001D30336899F80020082A01D0402A4CD1DFF8F1
S214001D4004827C49D8F80000096803F0030AC21828
S214001D50A2EB0A028A420BD98324A0E7724CA24265
S214001D600CBF862484249AE7862498E7882496E77E
S214001D706F4A17681F4407446F4BA7EB0A0718689B
S214001D8027F4FF6727F00707874209D9391A00F5B5
S214001D900060FEF7B5FA684B08B185247FE71F6040
S214001DA03168D8F80000A1EB0A01FEF761FD326841
S214001DB0D8F800305A49A2EB0A02074613445F4897
S214001DC0C8F80030FEF7C2FF002FE6D199F80030C1
S214001DD0002B7FF442AF01E0002A6DD133687F2BE1
S214001DE07FF63BAFDFF86081D8F8000028BB4F4B8A
S214001DF0D3F82838A3F17E63A3F58433B3F5605F88
S214001E0015D20123CDE90A0009A88DF82430FEF783
S214001E100DFA0A9B1A0E7BD0012A03D1C3F307439F
S214001E200A2B75D9414BD3F828389B6B9847444BFF
S214001E30186007F0BFFBC8F800003C4FD7F828280A
S214001E40A2F17E63A3F58433B3F5605FA5D2936AEF
S214001E503B4AD8F800001168984700289DD1D7F86B
S214001E602838A3F17E63A3F58433B3F5605F21D2EF
S214001E700123CDE9070032688DF8183006A8D8F897
S214001E8000A00392FEF7D2F9079B190E12D0012983
S214001E90039A03D1C3F307430A2B0BD9234B05A997
S214001EA0D3F8283800915F6B244909AB5046B847F1
S214001EB0002851D08424F2E622490A681A440A60AF
S214001EC01A4AD2F82818A1F17E62A2F58432B2F539
S214001ED0605F13D21C48CF6A184A1C490068B8478E
S214001EE0074632680E491548FEF730FF40F20323D6
S214001EF09F4206D101238BF80030AFE640F202275E
S214001F00EFE740F201239F423FF460AF8024C6E62D
S214001F104FF4C0708BE700BFFA0A0020F90A0020D1
S214001F20F40A002070010020EB17A6030000E10F62
S214001F30301200203412002088110020F406002001
S214001F40180B0020000B0020140B0020040B0020B0
S214001F50F80A00204C0100209DF8243089F8003053
S214001F6023B9059B13B1402389F80030FEF70CFA1D
S214001F70074658B3D0F834A099F80030002B3FF449
S214001F806DAE0022069204228DF8132006A90DF1EC
S214001F90130235200393FFF7CFFD069AD30719D512
S214001FA0039B082B14D0BAF1000F13D0534610220F
S214001FB00CA903F12800039307F004FB20B9039B48
S214001FC00A9A1B6A9A4205D8892468E68246D3E7AD
S214001FD0364BECE797B14FF400613846FEF790F9C0
S214001FE000287FF4DAAE2AF4FF604FF4006120F098
S214001FF00700FEF785F900287FF4CFAE99F8003089
S214002000082B01D0402B0FD1294B2A4A186820F400
S214002010FF6323F007034FF400611360FEF770F9C7
S21400202000283FF41BAEB8E6234F244BDFF89C9005
S2140020307B60D9F82828A2F17E63A3F58433B3F534
S214002040605FBFF4AAAE936A1D4AD8F80000116814
S214002050984700287FF4A1AED9F82828A2F17E631D
S214002060A3F58433B3F5605F18D2D2F82C903368AA
S214002070144AD8F800003946C8470746326812495D
S2140020801048FEF763FE40F203239F423FF432AF50
S21400209040F201239F423FF4E1AD37E740F20227CA
S2140020A0ECE70D24DAE58124D8E500BF949800001B
S2140020B03012002088110020040B00206910000058
S2140020C0180B0020F4060020F40A00200000E10FA0
S2140020D000F00F000138072844D8DFE800F0040FAE
S2140020E01943232D4335244BD3F8943003F00703CC
S2140020F0023B052B38D8214AD05C70471E4BD3F8DC
S214002100803003F00703013B042B2FD81C4AF3E76B
S214002110194BD3F8843003F00703013B042B25D872
S214002120184AE9E7144BD3F8883003F00703013B5D
S214002130042B1BD8144ADFE70F4B1B6F13F0010F5D
S2140021400CBF0720092070470B4BD3F85C3103F017
S2140021503003202B0CD0302B0CD0102B14BF0120BA
S2140021600720704700207047052070470120704701
S214002170042070470820704700400E407C980000FE
S21400218082980000879800008298000000B962B626
S214002190704700002DE9F0410D4F06460D461446E7
S2140021A00CB9BDE8F081EFF3108872B623462A46D4
S2140021B031463846FEF70AFD03464046FFF7E6FF7F
S2140021C0002BEDD0E41AA4B21D440026E8E700BFB9
S2140021D0340C002013B5002301F10804ADF80430D8
S2140021E0ADF8060021461A4651F8080C083170B9B9
S2140021F00BB1ADF8042004220DEB020101200834D7
S214002200FFF7C8FF54F8101C39B902B010BD51F8DA
S2140022100C3C1A4492B20123E6E734F80C2C00205A
S214002220EDE700007FB50130002380B2CDE9010163
S214002230CDE904336946044B009304200392FFF76C
S214002240C9FF07B05DF804FB58010020EFF31080CB
S21400225072B67047FFF79ABF064A074BD3F8803925
S214002260136F23F007031843044B10671888FEF714
S2140022705BBA00BF00300E400000C643C006002018
S2140022800D4AD2F8E430D2F8E0109B0003F03C038D
S214002290C1F381110B438370D2F8E03003F03F03A3
S2140022A04370D2F8E830D2F8EC2003F0F003C2F323
S2140022B0031213430370704700FF0FE02DE9F3414C
S2140022C007460E469046072800F28F80DFE800F0AB
S2140022D004BB2621B68D8D0E4FF400714FF4807529
S2140022E008230924002E00F0948084E001A8FFF75C
S2140022F0C7FF9DF80530012B06D94FF400414FF477
S21400230080450E230F24EDE79DF80430022BF4D809
S214002310FEE70125022100232C46E3E7002975D0BD
S2140023204B4A536A13F0300F62D14A4BDB6B536A49
S214002330D80705D5536A23F0300343F010035362E1
S214002340042502230324424A1566434A13449B008D
S21400235019680029FCD0B8F1000F46D01444A40038
S2140023602368002BFCD0022F3FD1002E3DD0384BE7
S2140023705A6AD10741D54FF48062C3F8A8202022BC
S2140023805A665A6A12F0300F0CBF4FF440024FF4F0
S2140023900002D3F8901032EA0101FAD1520201D5B8
S2140023A0D3F8A0302A4E012200210220D6F89C70D5
S2140023B0FFF784FFD6F89030726A284B22F030027E
S2140023C042F010027262C7F30A07316BFA09033251
S2140023D00F2A03EA010328BF0F223B4343EA027396
S2140023E0336335662368002BFCD002B0BDE8F0816D
S2140023F00425022303240026A5E75A6AD3F8902072
S21400240002F44002B2F5400FF8D1C9E708210223D2
S21400241003240F480122016602FA03F3D0F8902045
S2140024201A42FBD1B8F1000FDFD00123084A03FAA5
S21400243004F4D2F890302342FBD1D6E720211025B1
S214002440042305244EE7802140250623072449E778
S21400245000400E4000300E408004F21000F8FF0FDF
S21400246011282DE9F04105460C4611D104290FD15B
S2140024706848684E0021FFF7D1FA05F00F056B1E7D
S214002480072B66D8DFE803F0130661655F8865935F
S2140024900026F2E7604D013C0C2C5AD8DFE804F029
S2140024A07A5B625959695959595759597300023C10
S2140024B00A2C4ED8DFE804F0423F343A4D4D4D4DDD
S2140024C04D0645000320052501221146FFF7F6FEBE
S2140024D0524C5048276C41F67138C4F840800021B1
S2140024E0FEF7A4F8BFB247451CBF002323640EB115
S2140024F0FEF764F84A4B5D67FFF782FA0446FFF77B
S21400250059FAFEF771F8FEF765F801462046FEF721
S214002510B1F8F6B930460121BDE8F041FFF77EBAC2
S2140025204048FEF761F802200546CDE73D48FEF735
S2140025305BF80320C8E701200325C5E70020042533
S214002540C2E70725C4E7384DA5E7384DA3E70423BF
S2140025502B60BDE8F081012211460020FFF7AEFE99
S2140025600223F5E7012211461046FFF7A7FE0123D6
S214002570EEE7FFF71FFAFEF737F82D4B0122C3F8F8
S21400258008260323E4E7012211460720FFF796FEFC
S2140025900523DDE70023DBE7072C04D0092CD8D180
S2140025A01F4B012201E01E4B00221A67D1E7013CB7
S2140025B0072CCED801A353F824F000BF0F26000046
S2140025C05325000053250000012600005325000077
S2140025D053250000F3250000DD25000003221049E6
S2140025E0D1F85C3123F0300343EA0213C1F85C31C2
S2140025F0AFE7012211460420FFF760FE0122EEE756
S214002600012211460220FFF759FE0222E7E70022C8
S214002610E5E700BF00F0490280400E4000000E4093
S21400262000400E400148E80188400E4084400E40BD
S2140026300010C843000000002DE98048104B5B687E
S2140026405805A5B01ED44FF0005300221A601CA8EF
S214002650FDF7ECFDFDF798FED8B1446BFEF7CEF91A
S2140026601E9B590740F15982FDF78EFEFDF71AFEB4
S2140026700446FEF7A9F9002C40F0668209E000BF88
S21400268000500E404FF000531A68022ADBD1002299
S2140026901A60BFF35F8FC14B5A6A22F480325A62C7
S2140026A0D3F8942022F00102C3F89420BFF34F8F92
S2140026B0BFF36F8FBA49BB4F0A68BB4DC3F898206B
S2140026C04FF00050C3F89C00B848C3F8A000AF42D3
S2140026D002F1010008604FD07E1E731B43EA5303CD
S2140026E043EA930343EA131343EA132343EA1343E9
S2140026F00133B3F5807F38BF4FF480735C422C40C3
S21400270003EB040C674500F23082072BACEB07079F
S2140027104FF0010C8CBF4FEAD30E4FF0200EB7FBE4
S214002720FEF70CFA07F7013F2D1BFFB2361BB3FA74
S21400273083F3B6FBFEF6B5FBFEFE66440CFA0EFC13
S21400274007FA06F60CF1FF3CC3F11E034CEA060638
S2140027505B0006F0FF0603F03E0343EA06238F4DB8
S21400276043F0407343F001130232C5F89800C5F8F1
S2140027709C40C5F8A0300A60BFF35F8F874B0522E8
S214002780C3F894205A6A42F480325A62BFF34F8FDD
S214002790BFF36F8FBFF34F8FBFF36F8F844B012252
S2140027A05A641A681CAF42F480721A603846FFF703
S2140027B067FD9DF87130012B03D89DF87030022B11
S2140027C00DD97C4B4FF41872C3F88C227A4AC3F8A2
S2140027D090227A4AC3F8F022794AC3F8F822794B55
S2140027E0D3F8A42142F4F842C3F8A42102229A6343
S2140027F09A6B02F00F02022A40F01481DA6C22F083
S214002800405222F0010242F00102DA64D3F8E020DE
S21400281042F44072C3F8E0206B4A0F211180DA6E52
S21400282042F08072DA66694BD3F8800900B1042062
S214002830FFF712FD664B634DC8221A80654BA02237
S2140028400F2000241A80FDF76FFF634BAB65CDE9C0
S2140028501444624B1C947C60D3F81832C3F30722EE
S214002860DBB21E921693EE6CC6F301762246334612
S214002870394614A8FDF70EFFD5F8E050C5F301253C
S21400288022462B461DA915A8FDF704FF1E9916988B
S2140028904FF416730A1A5A43B2FBF3F3C01828BF54
S2140028A001248142C0F0BE80002C40F0BB801D9BFE
S2140028B0159C4FF4167C1A1B0CFB02F2B2FBFCF2C2
S2140028C0A4182CBF01220022A342C0F0AB80002A2D
S2140028D040F0A8801C9A1499531A0CFB03F3B3FB20
S2140028E0FCF3C9182CBF012300238A42C0F09A804B
S2140028F0002B40F09780334AD36D23F4FE4323F039
S214002900020343EA0023D365344B022ED3F8302269
S21400291000F02D81032E00F02D81012E14BFD2B2BF
S214002920C2F30722120312F4702F7BD12548C36E20
S21400293023F470431A43294BC266022DD3F8302283
S21400294000F01A81032D00F01A81012D14BFD2B2B7
S214002950C2F30722120312F4702F63D1194BD3F877
S214002960E00020F470400243C3F8E0205A6EA14213
S21400297038BF2146E72922F4FF7228BFE72122F05C
S214002980010242EA41025A66DA6B42F48062DA6376
S2140029904AF6E852596B5A6322E000BF00ED00E0A9
S2140029A0CC110020C0000020C00000203900011318
S2140029B000000E4000400E409A6F0500180100040B
S2140029C00084320800300E40C00600200000C643D7
S2140029D0C2060020C4060020372110B70081E00F91
S2140029E09A6FD207FCD41B6C664A13F0030300F000
S2140029F01B850123C2F8B43A634B9A6FD607FCD402
S214002A001A6C22F003021A649A6F12F00102FBD1CC
S214002A105C480129C0F8B42A08BF5A63594B012202
S214002A20C3F89427594C5A4E1120FFF751FB00214A
S214002A3001220220FFF742FC636A23F0010363626F
S214002A40544B0025C3F8A054A36A23F0070343F0B1
S214002A500603A362504BE362226B504B02F07F6288
S214002A60134323634E4B636304211120FFF7F8FCE6
S214002A70454B304601211B68FEF7D0FFFDF7AAFD47
S214002A8001463046FDF7F6FDD4F80001C0F30420F9
S214002A900130B6FBF0F0FDF7A7FD0122114602203B
S214002AA0FFF70CFC636A3F4E43F040536362D4F872
S214002AB0C83043F00103C4F8C8303B4BD3F8D830D5
S214002AC0B365042406AA08A935208DF81840089591
S214002AD0FFF732F8089A8DF81640062312F4803F66
S214002AE08DF8173009AC40F0C8820DF11702214668
S214002AF02C20FFF721F800286DD00DF1160207A94B
S214002B003C20FFF719F818B19DF81C0000F00100F2
S214002B109DF82A3060F3000359E014B9FDF754FF1E
S214002B20B7E5FDF707FC8442F8D2FDF703FC04F195
S214002B3050038342F2D82046FDF704FC0028EDD06F
S214002B4063696BB9FDF740FFFDF71EFC0446FDF711
S214002B501BFC164B986023689D466368984798E56B
S214002B609DF87030012BEDD17EE55B00C6E5C2F323
S214002B700742D7E6120ED5E6C2F30742EAE6120E81
S214002B80E8E600BF0000C64300300E4000400E409E
S214002B9000F049020000C8432000050007450BD09E
S214002BA047A00200005008400081E00F00ED00E062
S214002BB0B16D02F8011B013BFAD29DF8293063F093
S214002BC03F038DF829309DF82A3043F001038DF835
S214002BD02A30C14B5C60C14BC14A9A6000244FF456
S214002BE080715961C3E900221C82BE4BBE4A5961FE
S214002BF0BE489A60C3E900221C8200F066FDBC480D
S214002C00BC4EBD4D00F04EFCBC48BD4B036021469B
S214002C10BC4B436000F0CCFCADA3D3E9002330608E
S214002C20CDE900234FF0FF334FF0FF3200F0E8FF0E
S214002C3002224FF0FF31306800F0E4FF3C2394227C
S214002C40CDE91C321E933946962330682294CDE98E
S214002C5020441F9300F0C0FD30682C70294600F019
S214002C60F9FF28B1012330682B70294600F0F2FFE7
S214002C70994C3068DFF820A301F073F8B4F900200F
S214002C802978306800F01EFC0146306800F0CFFF5F
S214002C906468002C40F0F3815046FDF771FCB37B6E
S214002CA064F30003B373984B984C994DDFF8EC929D
S214002CB04FF0200883F801835C2283F80483002108
S214002CC083F8068304F1080083F8078383F80583F6
S214002CD083F8088383F81D8306F064FC42F21073C1
S214002CE0E3608C4B8C4AC4E9005342F201532381C3
S214002CF04FF49073338401231370884D8DF814308D
S214002D000022C9F800201B222A800DF1150105AA11
S214002D103E20FEF711FF11230DF113020FA93620F6
S214002D208DF81330FEF708FF0DF1120239463920F0
S214002D308DF81280FEF700FF80BB794B9DF81320BC
S214002D4018681B791C903B71002A00F0A1811B2A91
S214002D5028BF1B22531D8DF812300FA9531C0DF1EE
S214002D6075008DF8733006F00FFC14A8FDF708FC0C
S214002D706C4A9DF812301288FA5224A99A1C51FA0D
S214002D8082F20021149802F8201C0933BDF8541072
S214002D9042F81F0C22F81B1C8DF8123020230DF170
S214002DA0110214A93A208DF81130FEF7C5FE48B975
S214002DB05D4B5A8B1B7F8DF852300323ADF85020A5
S214002DC08DF81130594B5A4800224FF00208C3E9DB
S214002DD00022584B036080F80480FDF7DBFD564860
S214002DE0564B03601023037280F80480FDF726FF1D
S214002DF05348544B0360544B80F80480C36080F8FB
S214002E000880A0F81080CDE90038434690E8060018
S214002E101430FDF753FD9DF81310002900F0438190
S214002E200FA8FDF735FF4948494B03604FF01008DF
S214002E3080F80480FDF7AEFD4648474B474A0360DE
S214002E404FF6FE7B08230372C260A0F810B080F82D
S214002E500480FDF7F3FE4248424A02600C220272EA
S214002E60414AC260A0F810B080F80480FDF7E6FE84
S214002E703E483F4A02604FF0020B3E4AC2600823BB
S214002E80038280F8048080F808B0FDF7D7FE3A4841
S214002E903A4B03603A4BC3600123038280F80480F8
S214002EA080F808B0FDF7CAFE3648374B0360374B4C
S214002EB0C3604FF6FE73038280F8048080F808B083
S214002EC0FDF7BCFE3248334B036069E0AFF3008089
S214002ED0085500510000000068010020340C002056
S214002EE04C0C00201C0B0020340B0020690345EC22
S214002EF0489900008C11002014000020BC1100200E
S214002F00F5120000B011002000E100E0E40000200F
S214002F10D6BE898E555555004C0D00205401002014
S214002F20C5970000CF97000058980000A406002020
S214002F30F0110020D2970000E4040020D59700008E
S214002F40C8060020D89700007698000010120020CF
S214002F50DB9700003C050020EC970000650D0000A4
S214002F6094050020FD970000511C0000DC030020A3
S214002F700E9800008C980000EC0500201F980000BA
S214002F800C990000340400203098000081020000F4
S214002F908403002041980000941100208003002044
S214002FA0A64BC3604FF6FE73038280F8048080F859
S214002FB008B0FDF743FEA24BA24A1A604FF6FF7216
S214002FC09A809DF81220202A05D8931D9E48637586
S214002FD0394606F0D9FA9DF81120202A06D8931D06
S214002FE09A4884F83D3014A906F0CEFAFEF732F976
S214002FF0227C617CB2FA82F35B0963F30001237DD5
S214003000617462F30303B27B02F0010262F386137B
S2140030102375637D0BB9062363758D4BBAF80410D0
S214003020B068C4F81600998094F83C30042161F327
S214003030030362F3861384F83C3094F83D3013B9EA
S214003040062384F83D30834BB068BAF80420C4F8F1
S2140030503E009A80FEF78EF97F4E804B1B782BB190
S214003060DFF808824046FDF77DFAF8B97C4A136916
S21400307023F00403136130BFEFE722469BE5206888
S214003080B060A288A3798AF80630AAF804200AE677
S21400309008238DF81230734B1A889B78ADF875208C
S2140030A08DF8773061E66F480321BAE6EFF31084B7
S2140030B072B600231A460DF119014046FDF723FDAE
S2140030C02046FFF763F89DF8193013B10023C9F8BE
S2140030D00030D9F80020EFF3108472B6C2F5017301
S2140030E09BB232440DF119014046FDF70CFD034634
S2140030F02046FFF74BF8D9F8000018440328C9F813
S2140031000000AFD93488231D9842ABD307D8708807
S21400311004284FF0000306D0062800F07B81002329
S214003120C9F800309EE732796B8004F1FF3A122A24
S2140031301FFA8AFA18D8012A19D9931E4A4F102B5B
S21400314015D8DFE813F0160014002C001400460013
S2140031501400F40014009700140014001400140067
S214003160140021011400C700522A00F0CD80062268
S214003170A7E0BAF1020F40F04B81B6F805400022F6
S214003180B4F5007F28BF4FF4007403231146504661
S2140031903B70A7F80140FFF745F82C80BFE7BAF16F
S2140031A0040F40F08E80B6F80540A0B2FDF716F882
S2140031B060B1027A7C80022A4FF005010CBF012321
S2140031C00223397041687B70032072E06C800A220B
S2140031D077E0073CDFF898B0CDF800B0A4B20194D1
S2140031E0B6F80710B6F805000223ABF10202FDF7A9
S2140031F06FFD4FF6FF7A5045044604D17368C3F35B
S2140032000F236B80E3E700230130CDE90033ABF1F9
S21400321002020223514680B2FDF75AFD50451CBFFC
S21400322000F1FF3080B207233B70A7F80140A7F8F3
S21400323003000022114604203BE000BFF10300001B
S214003240AC060020A4060020000100202801002073
S214003250FA000020220100207C010020A0060020A9
S21400326000ED00E0CB970000580100201C0B00206A
S21400327087010020BAF1020F40F0CA80B6F80500B8
S214003280FCF7ACFF00283BD0037B990714D52B88AE
S214003290013BADF81A300DF11A02B6F805000BA97D
S2140032A0FDF766FB024640B90B23BDF81A200B99C2
S2140032B03B70FEF7B7FF32E752467368C3F30F233F
S2140032C06B805B4B30796988587001241C7059807C
S2140032D01A71AEE7B6F80500FCF780FF80B1037BF5
S2140032E01A070FD5E21E92B25249B6F80500FDF74E
S2140032F009FB02460028E0D113233B700146D8E7BD
S2140033000122DAE70322D8E7B6F80500FCF766FFE5
S21400331000283FF404AF037B5B077FF500AFE21E97
S2140033204449B6F8050092B2FDF7ECFAF7E6631FDB
S2140033309BB2022B01D0102B6AD10022CDE90022CD
S214003340DBB23D4AB6F80710B6F80500FDF7C0FC3C
S2140033504FF6FF73984204463FF450AF2B880DF1AA
S2140033601A02043B0BA9ADF81A30FDF701FB024622
S21400337008B16C80A5E7BDF81A200B997C8009235C
S2140033803B70931C7B701FE7631F9BB2022B01D020
S214003390102B3DD14FF0000ACDE900AADBB2039313
S2140033A0254AB6F80710B6F80500FDF791FC4FF66B
S2140033B0FF7B5845039B04463FF420AF0130CDE920
S2140033C000AA1D4A594680B2FDF782FC2B88584554
S2140033D08246A3F1060318BF00F1FF3A0DF11A0268
S2140033E00BA9204618BF1FFA8AFAADF81A30FDF767
S2140033F0BFFA02460028BCD1BDF81A200B997C8083
S21400340011233B70131D7B70A7F804A0052050E71E
S214003410042256E7CDE90D33084B0B930BA9022384
S2140034200C93FEF7D7FE7AE6C2F8B43AFFF7F6BA80
S2140034305801002083010020850100201100002093
S214003440FEE7000008B5FEF715FB124B12498B424B
S21400345012D3124B124900208B4218D3FCF772FE8F
S214003460186850F82240586840F8224001329868A0
S2140034708242F5D30C33EAE70022F8E71C6844F8EA
S214003480220001325C68A242F8D30833E4E7002247
S214003490F8E700BF6CBE000078BE000078BE0000F3
S2140034A078BE000038B5044600F0E5FB0FCC044DAE
S2140034B00FC594E80F0085E80F00002038BD00BF58
S2140034C03C13002047F6FF739A42F0B569D00229F4
S2140034D069D8364B03EBC105CF00A87813F8311036
S2140034E0012838BF01200129044613D1EB781B1AA6
S2140034F00020984202D3E018C0B2F0BD191AA3EB20
S21400350051016E6836F911609642CCBF01F1FF3367
S2140035100846EEE768680028EFD0B0F90010914240
S21400352004DBB0F902109142B8BF114682883B44D2
S214003530FF2A08BFB0F906205F7807BFB0F9086019
S21400354001250025C82207F1FF3318BF2826521A86
S21400355092FBF6F22A44934228BF134600EBC305BB
S2140035604FF47A7EAE68EA8811FB02621E4601338B
S21400357022EAE2729F4202F5FA72AC46B2FBFEF213
S21400358005D9BCF80CC0944505F10805EAD200EB55
S214003590C6008088904228BF1046A04238BF20460A
S2140035A0AAE7FF20A9E70020A7E700BF3C130020FA
S2140035B0F8B50D4610B900242046F8BD0E4F3E68FB
S2140035C0002EF8D100F084F804460028F3D03860C6
S2140035D000F0DAF8204600F0A4F838B130463E6035
S2140035E000F0D2F8204600F097F8E4E7002DE3D08C
S2140035F02046A847E0E700BF5C13002008461146B7
S21400360000F0D4B8F7B5114D04466E680F4600209A
S2140036100121CDE90032B047DDE9003206463946E1
S214003620204604F0B1FE044618B92B6801209847DE
S21400363004463EB100F0D6FB00B91CB100216B6811
S21400364008469847204603B0F0BD00BF280000207B
S214003650F7B5104D019204466B680F460020012115
S2140036609847019A06463946204600F0CDFA0446A9
S21400367018B92B680120984704463EB100F0B2FB0B
S21400368000B91CB100216B6808469847204603B075
S214003690F0BD00BF2800002070470000431E033323
S2140036A006D8044B984228BF1846642838BF6420C2
S2140036B0704700BF40420F00431E012B03D9031F73
S2140036C05842584170470120704700F0E2BE0000A3
S2140036D0F8B50546FEF766F90E4B1E68074626B98E
S2140036E03846FEF753FD344610E0B46884B1237CB8
S2140036F09C46DB070CD495E80F004CF0010C84E8E0
S2140037000F0084F810C03846FEF740FD2046F8BD8E
S2140037103668E4E71C0000204FF4A472002105F090
S21400372041BF10B50021044600F07FFA2046BDE8F0
S214003730104004F027BC000038B505460C46E1B141
S2140037400B6843B11B68013317D0CB681BB18B687D
S214003750003B18BF01231846CF22412100F0DCFAB7
S214003760204600F099FE064A00231360054A85F8B5
S214003770E030C5E92243136038BD0023EBE700BF05
S214003780641300206813002010B5044618B9054BD2
S214003790054A136010BD03F075FDD4F89430002B75
S2140037A0F6D1F4E7993600002000002010B50C464C
S2140037B003F07EFD1CB103F0DDFD0128FBD1034BB9
S2140037C0BDE810405B680021032018472800002051
S2140037D003F0F4BE03F008BF08B502460868FFF71A
S2140037E05DFF08604868FFF759FF48608868FFF784
S2140037F055FF8860C868FFF751FF0B69C860581C02
S21400380003D00B48834228BF03460B614B69581C04
S21400381003D00748834228BF034688694B61FFF7F9
S2140038203DFFBDE808408861104604F001BC00BFBB
S21400383040420F002DE9F84FD0F88C3007460E4670
S21400384013B1038B8B4244D0D7F888B0BBF1000F7E
S21400385042D0DBF80830002B3ED0DBF80C20002AE4
S2140038603AD0D7F89CA0BAF1000F38D04FF0000835
S2140038704546C14601E0DBF8083003EB4514013548
S214003880E389B34216D8238AB342384612D3B4F932
S2140038901230B7F924109942A14603EAE3724EDDCE
S2140038A097F8D410FFF70EFE7B7D8342804646D9FC
S2140038B0DBF80C209542DED3B9F1000F27D00023A9
S2140038C04A4619463846D0473E83C7F88C9087F854
S2140038D0DD800020BDE8F88F0320BDE8F88FD046D5
S2140038E05546514647F6FF7403EB4519B9F80E30B6
S2140038F0B3421AD8B9F81030B34216D3B9F9122029
S214003900A24202EAE27204D14FF0FF08DCE701208F
S214003910E0E797F8D4103846FFF7D4FD7B7D834266
S21400392080464946D0D9DBF80C200135AA4202D998
S214003930DBF80830D8E70029E9D08946C4E7A14675
S214003940BDE700BF2DE9F04182B0D0F89C80164656
S2140039509DF820208DF8072004460D461F46B8F136
S214003960000F2ED000220DF107031146C04719495B
S214003970194A0D60194BD4F8881011602046D4F807
S2140039808C201A6003F088FF05461EB9284602B050
S214003990BDE8F081B0FA80F040F22D3233214009C4
S2140039A000F0BAF93946204604F036FA0C4BD4F843
S2140039B08C101B68054620469847284602B0BDE88E
S2140039C0F081417D90F8DD30994228BF194603F01A
S2140039D003FFCCE760130020641300206813002068
S2140039E0200000202DE9F04385B005460F4614461A
S2140039F01E4604F0D6FC04F0DDFC00283BD1DFF8C0
S214003A002481D8F800301BB1D5F8882093421FD007
S214003A1003F0B0FC012838D1D8F800308BB31A6810
S214003A207AB3D5F8881009688A4246D0D5F88C3023
S214003A301A68284604F0E4F938B90124009633469B
S214003A40224639462846FFF77DFF05B0BDE8F083DD
S214003A50304B1B68002BDBD0D5F88C209342D7D197
S214003A602D4B1B689F4222D003F084FC0128E5D032
S214003A704FF001090BE0274B00221A6004F092FC7D
S214003A80BDE7D5F888301968D0E74FF00009012067
S214003A9003F00EFC03F06EFC0128FBD11F4B002147
S214003AA05B6803209847B9F1000FB5D0C6E706B1AA
S214003AB074B9002005B0BDE8F083164A1268D2B18A
S214003AC01168D5F88C2012689142B6D05968B0E7D4
S214003AD0D5F89C4001228DF80F2084B100220DF10C
S214003AE00F0311462846A0470D4BD5F88C101B68CF
S214003AF028469847DDE7D5F88C201268E6E7697D0A
S214003B0095F8DD30994228BF1946284603F064FE32
S214003B10EAE700BF6813002060130020280000209A
S214003B202000002064130020F8B505460E46FDF779
S214003B3039FF314607462846FFF77CFE044620B18B
S214003B403846FEF723FB2046F8BD034602463146BC
S214003B502846FFF747FF04463846FEF717FB204681
S214003B60F8BD00BFF8B50D460646FFF7E5FDEF6861
S214003B7000224FF6FF73D0B2874206D81C46214675
S214003B803046FFF7D1FF2046F8BDA96801EB40118B
S214003B90CC899C4202D2002CF1D023460132EAE7BF
S214003BA0008B70470A7838B505461046FFF784FD47
S214003BB060B14C782046FFF77FFD38B122435307AB
S214003BC004D42846BDE8384003F044BD012038BD83
S214003BD0FFF7E8BF10B504460878FFF76DFD58B14B
S214003BE04A781046FFF768FD30B1042A04D0204614
S214003BF0BDE8104003F066BD012010BDFFF7EABF28
S214003C0003F0FEBA03F054BC37B504460D460192E5
S214003C10FFF78AFF38B9019A2946204603B0BDE867
S214003C20304002F071BA03B030BD04F0CBBB13B520
S214003C3004460020019100F02DFCD4F89C3033B9E6
S214003C400199204602B0BDE8104003F0F1BD022005
S214003C5002B010BD38B5044648880D4600F01AFC80
S214003C60D4F89C302BB929462046BDE8384003F0EE
S214003C7071BD022038BD00F00EBC38B505460C46B6
S214003C80FDF790FE296BEB6A0C402343EB62FEF7D0
S214003C907DFA00200CB9002138BD4FF40071FBE717
S214003CA004F042B804F062B807B54FF400730A494E
S214003CB0ADF806300DF10602FFF7F4FFBDF806304A
S214003CC0B3F5007F05D1022808BF002003B05DF8D9
S214003CD004FB0120FAE700BFB8140020084611468E
S214003CE000F0F6BA04F00CB838B50446154609B12B
S214003CF004F05BF825B12046BDE8384004F058B81B
S214003D0038BD0000024B1960024B1860FEE700BF8A
S214003D1024000020BC16002008B550B90548064B04
S214003D2001601A60054B1A68054B1A601868FFF7A1
S214003D30E9FF08BD24000020B81600205C13002010
S214003D40BC160020837C03B108470220704710B5DC
S214003D50044604F0C7FB20460321BDE8104003F0EC
S214003D601FBBFFF7F4BF00000149FFF7EBBF00BF22
S214003D70B98400000149FFF7E5BF00BF8D8400004D
S214003D8013B5827C0C46C2B1053A012A8CBF0022CC
S214003D9001224968019204F0AEFB206890FAA0F078
S214003DA0000A01F00FFCA17A2089019A81F0010136
S214003DB004F0D2FB002002B010BD0220FBE71FB5C6
S214003DC0CDE90112ADF80C3001A99DF818308DF838
S214003DD00E30FFF7D5FF05B05DF804FB00207047F6
S214003DE000207047014B1878704700BFC0160020AF
S214003DF02DE9F74F06681C4606F007069DF830309A
S214003E000193B31D01269E400546174606F1FF386E
S214003E100B46A1B1416804EA080BA6EB0B0A41F079
S214003E200059524509EB0B0118D95246184605F0C1
S214003E30ABFBBA1B5A444946504405F0A5FB019B10
S214003E404BB13C4448EA06063440EC60AB68A342FB
S214003E501CBF0223AB6203B0BDE8F08F1846ECE748
S214003E600D4BD3F8E020D20314D50C494FF4803222
S214003E70C3F8E820C1F8EC209A6BD1B2C2F307224F
S214003E8099679A6704229A6700229A679A679A67E0
S214003E909A679A67704700BF0010084000100846EF
S214003EA038B50C4C226060600D46FDF77BFDD4F8FB
S214003EB0E0305B0758BF04234FF00102A262A56002
S214003EC058BFC4F8E830FEF761F90DB10223A362CB
S214003ED038BD00BF00100840044B1860044B40F685
S214003EE0FF72196358635A65704700BFC4160020F6
S214003EF0001008402DE9F04F042A83B005463AD951
S214003F000B7883614B7883618B788361CB78836190
S214003F100068D5F808B06E6800F007004FF001089A
S214003F20063008FA00F808F1FF3909EA0B07A2F193
S214003F30040AA8EB0702924501F1040446F0005675
S214003F400DD8F0192146524605F01EFB0AEB0B036E
S214003F5048EA09021340AB6003B0BDE8F08F214683
S214003F60F019019205F010FB019AA118AAEB0802BD
S214003F7030463A44E8E7013A032AEDD8DFE802F093
S214003F800B08050211F8013B836111F8013BAB6198
S214003F9011F8013BAB610B78AB6103B0BDE8F08F65
S214003FA037B5002500951446FFF722FF204603B0DC
S214003FB030BD026802F00702063201239340026A0F
S214003FC0C2F30C028A4210B584BF4468C26803F18B
S214003FD0FF339BB283BF891844F000500B404FF06C
S214003FE0FF3088BFC05C10BD402938B514464FF07E
S214003FF001020DD8084DC5F8B8200A460146074804
S214004000FFF778FF34B10423C5F8B830002038BD78
S2140040101046FCE72046FAE70010084090100840DB
S21400402010B5FDF7BFFC1B4B1B491C4C01229A65C3
S214004030C3F888201A6659660721C3F884102180C1
S214004040174C002121804FF4A024C3F8E84003F168
S214004050C063C3F8EC40134B1960134BD3F8883099
S2140040605C0213D5114B12491B684FF48004C1F84B
S2140040708840596B090609D493F8C6300D494FF4A9
S21400408000148C6113B10C4BC3F8F820BDE8104047
S214004090FEF77CB800100840C81600204A1700201B
S2140040A0481700204C170020004008405C130020F2
S2140040B00040084400600844006008460D4B072294
S2140040C01A800D4B00221A800C4BC3F890204FF438
S2140040D00052C3F89400C3F8B420094AF0211164D2
S2140040E002F10072A02111640122C3F8B820FFF784
S2140040F097BF00BF4A17002048170020001008404E
S214004100000008442DE9F0410446A0B1404E414F5E
S214004110FDF748FC3188404B01F07802032C054639
S21400412001F07F0E1A4460D1D7F800C0BCF1000F32
S21400413003D1FEF72BF8032055E02CF00104386875
S21400414020F00100A04255D100233B6023886FEA8F
S21400415043436FEA53439442238040D12F4FDFF806
S214004160D8C03B88ACF18008CC18083B9BB202F163
S2140041700801E01A614528BF4146082B80B204D9E1
S214004180B1F900E0BEF1000F3FDB947812882449B5
S2140041903B80C2F30C02C0B2CA6304F0070430804E
S2140041A0C866C1F88430FFF75BFE042C17D11D4BA0
S2140041B01D4AD3F888301D4B4FF480011B68C2F8A7
S2140041C088105A6B12060AD493F8C630184A4FF471
S2140041D0001191611BB1174B0122C3F8F820284645
S2140041E0FDF7D4FF0020BDE8F081601E012898BFCF
S2140041F01446A4E7094873440088E31A48BF80338E
S21400420008389842A2DC284693E70A46ADE700BF86
S214004210481700204C170020C81600204A17002018
S2140042200010084000400840004008445C1300208E
S2140042300060084400600846481700200E480F4AF1
S214004240038812880E491A44073A02F078020A4494
S21400425008339BB2038090780A4900F007000428D0
S214004260C1F8843004D101F540514B681B03FCD4DF
S214004270054B1A60704700BF4A17002048170020F9
S214004280C8160020001008404C17002010B5054C3A
S214004290206828B1C30701D4FFF734FF002323604A
S2140042A010BD00BF4C170020084B4FF48032C3F8F7
S2140042B0EC2003F17C43C3F8E420D3F88030C3F34A
S2140042C00C03782B01D8FFF7CBBD704700100844CD
S2140042D02DE9F04705460E46FDF764FB534B544C5C
S2140042E01A888146534802F07801032D078802F0A9
S2140042F07F03214417D1504805688DB9D519073D6D
S21400430005F0780525442344EB1A48BF8033BB42AA
S21400431010DB4846FDF73AFF00252846BDE8F08743
S21400432025F00105EFE7012D02D0022DEBD1083F65
S2140043300D46E8E7002E48D08D424AD13F4AD76B5B
S214004340BFB23E490A6B02F0070A0AF106024FF0B6
S214004350010A0AFA02FAD1F88020C2F30C029A4245
S2140043601FFA8AF847DDB5F900302C88002BD0DB21
S214004370AB78C4F30C0408F1FF3203F00703E41B28
S21400438048EA02021440052B3370A4B22BD824B29C
S214004390E04340F2BB320421C00FFFF7BDFC74803F
S2140043A0EB78337408F1FF331F40254B1B68DA198E
S2140043B0B260A2B217FA84F45445CBBFA8EB070844
S2140043C00023A6F80480B280F3604846FDF7DEFEC0
S2140043D0A3E7A5F10802A24238BF05F178021788C4
S2140043E0C7F30C07ADE7174BDB6C002B0CBF0023A5
S2140043F00823E41ACBE78B6B134A08F1FF34DB1B68
S21400440048EA04041C40A1B2536824B259B9C3F365
S2140044100363032B0CBF082300233370D2F89030BD
S21400442071801B0ABDE70823F7E700BF4817002086
S214004430C81600204A1700204C170020001008401D
S214004440C41600200000084000400840431C08D066
S2140044500449D1F83C311B0C1B0480B20343C1F85D
S2140044603C3170470040084010B5044608680A46CC
S214004470FFF7ECFFD4F88C304BB15B693BB11168A9
S214004480013104BF6FF00101116012681A6000204C
S21400449010BD704770477047862231210120FFF714
S2140044A03BBC38B50D46044600F048FFAC4042F22F
S2140044B0107364095C436423B0FBF3F0B4FBF0F0C4
S2140044C038BD0000034B1A689B880260838000207A
S2140044D0704700BF360000200F4B0228D3F8883103
S2140044E004D183F40010C0F340507047012805D172
S2140044F013F4400F0CBF01200020704750B9074A44
S214004500D2F8D40010F0010005D083F48000C0F388
S214004510805070470020704700400E400081E00F3A
S2140045200B4B5B88B3F5E16F8BBF5A23C823502231
S214004530782298428CBF172310230B70054B1B78EC
S21400454023B1904294BF0020012070471846704760
S214004550360000203400002013B5234B1B78032BB5
S21400456004463ED00DF10701FFF7DAFF1E2C8CBF84
S2140045701E491F499DF807204FF001038CBF0124F8
S2140045800024C1F8083170B1194B4DF60171C3F81B
S2140045900411120203F1007342F44042C3F80421EE
S2140045A0144BA3F8D420134991F8D82022F0010226
S2140045B0024322F0020242EA4402D3B20E4A81F8D3
S2140045C0D83012786AB9B1F8D420A1F8D62023F0F2
S2140045D0040242EA800323F0080343EAC40381F896
S2140045E0D83002B010BD00BF36000020004008469C
S2140045F000400844001F002152170020084B094ABB
S214004600D3F88831DB4303F4FE1343F40053B3FAC4
S21400461083F30E33A3EB4313013B1370704700BFC5
S21400462000400E403E00002001280CD0022802D098
S21400463020B100207047054B18787047034B187858
S2140046400430C0B270470720704700BF3E0000200D
S21400465002289ABF014B185CFF2070470C9A000096
S21400466030B51F23B0FBF3F35C1CE5B2C3EB43137A
S2140046704FF0FF34AC40C01AE4430130E4B2C0B29D
S2140046801460086030BD00002DE9F743424E434FEA
S21400469096F800901546424AD2F8C820B9F1010FA4
S2140046A00446884607EA020705D147EA00600C7010
S2140046B000232B6040E03B4A1278904228BF144605
S2140046C0002B14BF0423002323440B70002C48D077
S2140046D0013CE4B24FF030632B606A46204601A9E5
S2140046E0FFF7BEFFDDE900302F4A98F800C01278C9
S2140046F047EA006040EA833040F47F5040F008000C
S214004700002A30D0B3FA83F32849294AC3F11F039D
S2140047105BB2B9F1020F18BF0A46591C27D0D75C06
S214004720FFB22A6822F07F41BCF1000F21D141F090
S214004730306141F0040129607288B2F5E16F20F41F
S2140047407F538CBF5A22C822944223F008039ABF94
S214004750180A00F47F5043F6C870184303B0BDE84B
S214004760F083144BB8E7FF274FF0FF33D9E7FF2756
S214004770D7E7013303D07B1EDBB2FD2B06D922F030
S2140047807F4323F0040343F07F4392E741EA076345
S21400479043F004038DE700BF360000203F00C0E072
S2140047A0001F00213E00002055170020B883E00FB0
S2140047B0B083E00F0400000B73B50446C820FFF773
S2140047C0CBFE2C4B2C4D1878032801D0FF2C03D1A0
S2140047D0FF20287002B070BD01282CD1072C20467F
S2140047E028BF072001284FF0000301AA0DF103019E
S2140047F038BF0120FFF748FF0446204B204E019AA1
S214004800C3F85821C6F8C8409DF803002870FFF783
S214004810A3FE019A130203F4E06343EA1263194A03
S214004820A6F8D03012781AB9C6F8CC40A6F8D2301E
S2140048309DF80300CEE790B9042C14D8034606462C
S214004840201A01AA0DF10301C0B2FFF71DFF4FF4B5
S214004850800304465EB10C4AC2F80831CDE7002357
S2140048601E461846ECE701231E460420E8E7074AE2
S214004870F2E700BF36000020350000200040084068
S214004880001F002152170020004008460040084440
S21400489008B500F0FDFF094B094A002808BF1A4674
S2140048A0136823F47F115B0803F4FE130B431360B5
S2140048B0044B4FF00072DA6108BD00BF1841084093
S2140048C0004108400040084008B500F0E1FF064BF4
S2140048D04FF4001228B1C3F800214FF000621A62AC
S2140048E008BDC3F81821F8E700400844014B1868D3
S2140048F0704700BF5817002070B505460E46C0B278
S21400490001F00F01FFF7CDFDC6F303110446C5F312
S2140049100720FFF7C6FDC6F303210444C5F307408E
S214004920FFF7BFFD204470BD436C012B38BF012349
S2140049302DE9F0479A46474B474F9B69474E484DEF
S21400494003F4E073A3F5C0728046464851425141D5
S21400495002685245444A0FD114788C420CD198F81C
S214004960D4C03C78A44507D198F816C03478A4453E
S21400497002D1A888BDE8F087B3F5C07FC0F800A0D4
S21400498011704CD1D8F8904024B12368082B5AD91E
S21400499094F838400F212046FFF783FDBAFA8AF3D1
S2140049A0002854D0B0FA80F29B1A002BC4BFC3F183
S2140049B00F09D840274BD8BF4FF00F0950454FEA94
S2140049C00440C3F8BC0003F1806340F6FF7288BF62
S2140049D009F1FF39C3F8B82003F100734FEA092143
S2140049E0C3F8B810FFF788FFA88000F0A7FC09F00E
S2140049F01F094FF4FA7304FA09F45C4341F66A039C
S214004A00B0FBF3F0194BB4FBF0F40A2044431C60EF
S214004A1098F8D4303B7098F816303370A9E798F8B9
S214004A20D430022B06D1124B1B78002B14BFC8249F
S214004A309624AFE7012B08D00D4B1B78002B14BF34
S214004A40F024B424A6E70024A4E73224A2E7202218
S214004A50AAE700BF006008403D0000203C000020A0
S214004A603600002030000020501700205817002085
S214004A7055170020FF290DD00F4B1048C3F85001E2
S214004A800B04090503F4E02301F0F87119430C4BFD
S214004A90C3F85011FF2A0DD0074B40F2F711C3F8A8
S214004AA05011130103F4F87302F007021A43044B83
S214004AB0C3F8502100207047004008440000F7016A
S214004AC000400846F8B5134B134E1F68134D384682
S214004AD000F0AAFE3378C4B2A34201D12B78A3B16A
S214004AE0092C13D80E4B012C195D05D10D4B1B78E4
S214004AF0012B01D141F0400101F00F0238460909AF
S214004B00FFF7B8FF002334702B70F8BD0024FA219D
S214004B10F2E700BF5C130020531700205417002054
S214004B200F9A00003600002070B5044600F0AEFB79
S214004B30142200213148324E04F034FD314B2578E2
S214004B401A783149521B18BF01220A7022681A606F
S214004B50C820A2889A80FFF7FFFCD6F8C8202B4B07
S214004B602B491340C6F8C8302A4BFF221A70D6F8D5
S214004B70C830294A23F08043022D23F017031AD1A8
S214004B804FF4EE40C2F824014FF48A42C1F82421C3
S214004B90012243F08043C1F82021194AC2F8C830E8
S214004BA01D4B0322C3F85821FFF78CFF1B4B012235
S214004BB01A70002070BD012D4FF007000ED1C2F80C
S214004BC00C010620C1F80C011549C2F808114FF473
S214004BD0404143F00303C2F80411DEE7C2F80C01BB
S214004BE00520C1F80C01C020C2F8080143F080433C
S214004BF0812243F00403C1F80821CEE7C81F002134
S214004C00001F002136000020541700203F00C0E09F
S214004C100040084635000020004008445117002098
S214004C20C10040002DE9F0472D4C2E4B236000F0CC
S214004C3085FB4FF4FA7307464FF47A76B0FBF6F628
S214004C4029482A4A7343190E1B02181841F100011D
S214004C50002303F0F1FEA0F580730546A36220B999
S214004C6060222B21FFF758F801254FF47A726A4329
S214004C704FF0000A53465008310203F0DDFE1C4B8D
S214004C8019601C4BB7F57A7F4FEA056889460446DB
S214004C9018604FEA152505D270222B215046FFF7E3
S214004CA03BF801264FF47A71A8FB01087308C01878
S214004CB001FB05814FF0000341F10001324603F08D
S214004CC0BBFE0D4B023419600C4B49F10009A408D9
S214004CD0186044EA8974024B013C1C63BDE8F08707
S214004CE0005008400211010020A1070040420F00BA
S214004CF0701700206C17002068170020641700202B
S214004D00044B4FF00052C3F880211A60024B012278
S214004D105A60704700E100E000500840054B020171
S214004D20134401221A604FF4807303FA00F0024B1A
S214004D305866704700510844005008402DE9F04777
S214004D401446054688461E46FCF72CFE022C00F04C
S214004D50AD800746FDF77AFA664B6749674AD3F88F
S214004D60189091F815A0D2F8882B5FFA8AFA002AD4
S214004D7040F0A180FDF76EFA614B624A1B6810682E
S214004D80A3FB09314FEA8A7213F1004300FB0922A4
S214004D9042EB0102D8F80010012C04BF013189183B
S214004DA0A2EB010208BFC8F80010B2F1804F0AF06B
S214004DB0030AC0F08580544BD3F800E0534BD3F879
S214004DC000804C4B21F04040D3F830C08A0F0023BF
S214004DD04FF00041EEFB001308FB0033634581BF34
S214004DE001320CF1010CA3EB0C0302F00302A2EB60
S214004DF00A02994588BF3F49DFF82CC184BF096B7A
S214004E0002F1FF3202F003020CF80520A3EB0900C2
S214004E10A2B1F10742BF3E4A41F61F71D166B20702
S214004E2042BF3B4A3B49D166710742BF314A002127
S214004E301167320742BF2F4A002111652D4A05F13E
S214004E40100102EB051E0901CEF80C311123535058
S214004E509369D16DA3EB0909814526D34FF480737E
S214004E60AB40194221D11CF80510002937D1002C7F
S214004E7038D0F007136608D5254B274941F61F7230
S214004E8040F20110DA66C866DA66B10706D5204B2E
S214004E902149204A2148DA66C866DA66720742BFA8
S214004EA01F4B01229A60330710D43846FDF76EF97F
S214004EB00120BDE8F087D3F818900AF1010A59E7F7
S214004EC03846FDF763F90020BDE8F087212000F0A2
S214004ED03BF9084B4FF480325A603846E6E71366D3
S214004EE03846E3E70F492D01294401250D60384671
S214004EF05366E6E700500840B417002000000A4357
S214004F0064170020681700206C1700207017002018
S214004F100050084400001F1F005008460000010112
S214004F2000400840005108445C1700201030034B36
S214004F300001185800F00100704700BF00500840FC
S214004F401030044B01F46001000141F003011950D8
S214004F50704700BF0050084038B5FDF777F9084A9B
S214004F60084B9D69547D084AD2F8882BE4B20AB1F2
S214004F709D690134FDF76EF9284604F0030138BD3B
S214004F80B41700200050084000000A4308B522204D
S214004F9000F0DAF8024B4FF480225A6008BD00BFDA
S214004FA000500840064B1B68434303EB8171054BDA
S214004FB01B68A3FB003013F1004341EB0000704771
S214004FC0681700206417002008B5FFF7C5FFBDE886
S214004FD00840FFF7E7BF10B50446FFF7BDFF844261
S214004FE088BF01F1FF31204601F00301BDE8104003
S214004FF0FFF7D8BF0D4A10B5146820F040430146AD
S2140050004FF000420020E4FB0320094A126802FB2E
S2140050100300084B1B6B98424FEA917104D9013389
S2140050200131C01A01F0030110BD00BF6C1700204B
S214005030701700200050084038B50446FFF7C4FF3C
S2140050400546FFF7C1FF431BA342FAD338BD000055
S21400505038B5354B354C08220546C3F8C8203448C9
S2140050600121FCF719FD334B1D702378013B012B02
S2140050700CD8237CE07B01229A400C21302313FBC2
S214005080001303F1884303F520431A602A4B0022DD
S2140050905A67002D41D06368002B34D000F04EF9DB
S2140050A0626800EB5203B3FBF2F3013B1B0243F0D2
S2140050B0F8032278022A28D0032A2AD0012A2FD1E0
S2140050C043F0020307221D494FF6FF70C86701F13F
S2140050D00071CB67184B5A6753070CD5237CE07BCF
S2140050E001229A400C21302313FB001303F18C435A
S2140050F003F520431A604FF080439DB1104AC2F872
S2140051009430002038BDF823D3E743F0010305228E
S214005110D9E743F005030122D5E72A46F823D2E76C
S2140051200022D0E7074AEAE700400E46781700203C
S21400513000350A00741700200000084000000844EC
S2140051400040084600400844044BD3F89430002B37
S214005150BCBF034BC3F88000704700BF0040084048
S214005160000008404FF0006318B1034AC2F89430BC
S2140051707047024AFAE700BF00400846004008446D
S2140051800020704708B5064B06491A684FF00450D1
S214005190920004F0F9F9BDE8084000F055BC00BFE5
S2140051A0A4B800004C9A0000C0F30062034B33F82A
S2140051B0123080B240EA0340704700BF1A9A0000DF
S2140051C007B501A8FDF75CF8134B144AC3F8442151
S2140051D048F2E672C3F838214FF40862C3F8342167
S2140051E00F4AC3F8A0200F4A4AF63F41916002F5E5
S2140051F080424FF0C07191620022C3F8FC200A4A38
S214005200C3F89C20094B7F225A6203F100732322C5
S2140052105A6203B05DF804FB00400840C0E65351F4
S2140052207A27000F00300840806D63030030084482
S214005230114B002210B5C3F88820C3F88C20C3F8A1
S21400524090200E4A4FF4007151620D4A0121D16040
S2140052505A6812F0706FFBD14FF00452DA670124DF
S21400526002F5FD52C3F880401A66064B1B68984745
S214005270054BDC6010BD00BF004008400000084041
S214005280004008464000002000400844034BFD2232
S214005290C3F8C8200122C3F8CC20704700400E4651
S2140052A038B5FFF7F3FF1B4B1B481C4C1C4902226A
S2140052B0C3F8C8201B4B1A6842B102EA0005A54293
S2140052C004BF5D68156008338B42F4D1164B02228A
S2140052D0C3F8C820154B164AD3F83C111160154A7E
S2140052E0C3F8942000F074FBFFF76AFF124B03220A
S2140052F0C3F8D820A3F500530122C3F894204FF436
S2140053006072DA604FF04072C3F8F820C3F81021DC
S21400531038BD00BF00400E460000FFFF00000840FA
S214005320B081E00F0080E00F00400E4400400840CF
S214005330440000200048F0000060084608B5FCF76E
S21400534039FB044BD3F81031C3F308230133B0FB09
S214005350F3F008BD00400E4070B5044618B10125B4
S21400536021684B1C00D170BD0846FFF71DFF0E0CD0
S21400537016F0FE0F03460ED0F6B2B200214600EB42
S2140053808606B34251F8040F02D1131D1C44E7E70A
S21400539043F8040BF5E7090F606808340729DFD8DF
S2140053A0DFE801F00A0408110C0F1417C04303F1DC
S2140053B0806301E01A6850401860D1E7FFF73CFEB2
S2140053C0CEE705FA00F003F1C063F5E705FA00F052
S2140053D0EDE71A6830EA0202FBD1C1E7024B012270
S2140053E0C3F89420704700BF00400846024B0122D5
S2140053F0C3F89420704700BF00400844024B402288
S214005400C3F89420704700BF00400844024B402277
S214005410C3F89420704700BF0040084608B50C4B00
S2140054201B68D3F8903023B11A68022A01D9186A8B
S21400543008BDFFF783FF074B1B6D024698B2002896
S214005440F6D0C3F30743D2085343B3FBF0F0EFE7BD
S2140054505C13002000600840064B5B68C3F30363E0
S214005460984206D10448436B23F0F00242EA011248
S2140054704263704700400840001F002110B50446F4
S214005480FFF7CCFF104AD2F830311B040F4B1B6CD1
S21400549003F4C05348BF4008B3F5805F0ABF136BE0
S2140054A0C4F30113C3F34163022B05D0032B09D0C9
S2140054B0012B00D1400810BDC4F3C4240134B0FB56
S2140054C0F4F0F8E78008F6E70060084000000840BF
S2140054D000F03003202B10B513D110F4E02FC0F3EA
S2140054E002431CBFC0F3C422B2FBF3F310F4C01F88
S2140054F018BF5B00052B0DD85C08FFF7BFFF6043A5
S21400550010BDC0F38213012B06D0042B14BF012458
S2140055100224F2E70424F0E70224EEE72DE9F84F30
S2140055200D46FFF751FDDFF8989080460026FCF701
S21400553039FA214B5968C1F303639F1E012B83463A
S214005540FFB22AD0052B2AD0A3F10B01D1F1000A15
S2140055504AEB010A012F24D8184B9968C1F3891425
S2140055600A0444BF6FEA84546FEA945424B26B1C56
S21400557003D0FFF729FDA0EB08065846FCF706FE09
S21400558014F5007F0FD1012F02D9BAF1000F01D018
S214005590AE42CCD32046BDE8F88F9A46DAE74FF005
S2140055A0010A4C46E3E7C83C24B26FF4FF739C4202
S2140055B0B8BF1C46EEE700BF004008400070084039
S2140055C000FEFFFF024B012218619A60704700BF81
S2140055D000200840084910B5D1F8703140B11C468B
S2140055E04A68D1F870319C42F9D1C2F30362027066
S2140055F003F00F0010BD00BF0040084010B5FCF7D8
S214005600D1F9084B1B6804463BB1984728B10022E5
S21400561000204FF4806100F027FB2046BDE81040D4
S214005620FCF7B4BD8C1700202DE9F0411F4DDFF8C4
S2140056309080069FA2FB036C75196CF1000E002487
S214005640A84574EB0E0507D24FF4B5720E2120461E
S214005650FEF762FB02201BE00029FBD0C0F313001C
S21400566001EB5305B5FBF3F3A3FB0030DB0C43EA79
S21400567040330F4803600F4B1A600F4B994209D115
S2140056800E4BA6FB036103FB0C118909396020460B
S214005690BDE8F0814FEACC4C0A462346F0044CEABB
S2140056A0563103F0C9F93860F1E700BF00C9E87663
S2140056B0901700209417002000F049020A3BB2DF42
S2140056C00046C32338B5164D2B780C4623B9154B28
S2140056D01B6D03F03F032B70134BD3F894305B0520
S2140056E01CD540F24D53114AB0FBF2F25343A3F5DA
S2140056F046400C38504300F5C91000F5556028B9EF
S21400570040F21D322B21FEF707FB01202B78084ABA
S2140057105343B3FBF0F02060002038BD0220FCE7C6
S2140057209B170020003008400040084000366E01FD
S21400573080969800314B70B51C68314B1D6B314B11
S2140057401B68ED024CBF1B19E31AB3F1804F4CD80F
S2140057502D4E002B4BD0B3FA83F5D5F102052B4C1A
S21400576054BFEB400025A34288BF5B0803EB5604FA
S214005770B4FBF6F4264E88BF0135B34204F1FF347D
S21400578034BF0026012644EA862444EA05340C6029
S21400579050B3B3FBF0F1642400FB1133634398422B
S2140057A088BF01F1FF314B08581E072801F1FF336F
S2140057B04FEA53011DD80F2B1BD8E0B9012B94BF1D
S2140057C000230123134C2370134C0625C4F8945071
S2140057D033B1124B1B781BB1114B0224C3F8944013
S2140057E00B0243EA0013136070BD0E4EB3E720258C
S2140057F0B3E70023E6E70123E4E700BF94170020A1
S2140058000030084090170020E06735003FBE402576
S214005810401B5F1399170020004008449A17002089
S21400582000400846C0CF6A00084B5B6B03F00700D9
S214005830C3F3C20213F0380F18BF5043C3F38212EB
S21400584013F4E07F18BF5043704700BF0030084095
S21400585070B505460C4651B10B6843B15B6833B171
S2140058601A68032A03D99C6A640E204670BDFCF7AA
S21400587099F8D5F88C60C5F88C4001462846FFF7A5
S214005880D3FFC5F88C6004460846FCF77FFCECE7BF
S214005890034BD3F8380180F01000C0F300107047B7
S2140058A000400840174B4FF4002210B5C3F8942070
S2140058B0154C164BB0F1804F98BF1C46144BD3F8CE
S2140058C08039F3B1134B14481B6F04F5F42404F528
